{
  "contractName": "Lottery",
  "abi": [
    {
      "constant": true,
      "inputs": [],
      "name": "answerForTest",
      "outputs": [
        {
          "name": "",
          "type": "bytes32"
        }
      ],
      "payable": false,
      "stateMutability": "view",
      "type": "function"
    },
    {
      "constant": true,
      "inputs": [],
      "name": "owner",
      "outputs": [
        {
          "name": "",
          "type": "address"
        }
      ],
      "payable": false,
      "stateMutability": "view",
      "type": "function"
    },
    {
      "inputs": [],
      "payable": false,
      "stateMutability": "nonpayable",
      "type": "constructor"
    },
    {
      "anonymous": false,
      "inputs": [
        {
          "indexed": false,
          "name": "index",
          "type": "uint256"
        },
        {
          "indexed": false,
          "name": "bettor",
          "type": "address"
        },
        {
          "indexed": false,
          "name": "amount",
          "type": "uint256"
        },
        {
          "indexed": false,
          "name": "challenges",
          "type": "bytes1"
        },
        {
          "indexed": false,
          "name": "answerBlockNumber",
          "type": "uint256"
        }
      ],
      "name": "BET",
      "type": "event"
    },
    {
      "anonymous": false,
      "inputs": [
        {
          "indexed": false,
          "name": "index",
          "type": "uint256"
        },
        {
          "indexed": false,
          "name": "bettor",
          "type": "address"
        },
        {
          "indexed": false,
          "name": "amount",
          "type": "uint256"
        },
        {
          "indexed": false,
          "name": "challenges",
          "type": "bytes1"
        },
        {
          "indexed": false,
          "name": "answer",
          "type": "bytes1"
        },
        {
          "indexed": false,
          "name": "answerBlockNumber",
          "type": "uint256"
        }
      ],
      "name": "WIN",
      "type": "event"
    },
    {
      "anonymous": false,
      "inputs": [
        {
          "indexed": false,
          "name": "index",
          "type": "uint256"
        },
        {
          "indexed": false,
          "name": "bettor",
          "type": "address"
        },
        {
          "indexed": false,
          "name": "amount",
          "type": "uint256"
        },
        {
          "indexed": false,
          "name": "challenges",
          "type": "bytes1"
        },
        {
          "indexed": false,
          "name": "answer",
          "type": "bytes1"
        },
        {
          "indexed": false,
          "name": "answerBlockNumber",
          "type": "uint256"
        }
      ],
      "name": "FAIL",
      "type": "event"
    },
    {
      "anonymous": false,
      "inputs": [
        {
          "indexed": false,
          "name": "index",
          "type": "uint256"
        },
        {
          "indexed": false,
          "name": "bettor",
          "type": "address"
        },
        {
          "indexed": false,
          "name": "amount",
          "type": "uint256"
        },
        {
          "indexed": false,
          "name": "challenges",
          "type": "bytes1"
        },
        {
          "indexed": false,
          "name": "answer",
          "type": "bytes1"
        },
        {
          "indexed": false,
          "name": "answerBlockNumber",
          "type": "uint256"
        }
      ],
      "name": "DRAW",
      "type": "event"
    },
    {
      "anonymous": false,
      "inputs": [
        {
          "indexed": false,
          "name": "index",
          "type": "uint256"
        },
        {
          "indexed": false,
          "name": "bettor",
          "type": "address"
        },
        {
          "indexed": false,
          "name": "amount",
          "type": "uint256"
        },
        {
          "indexed": false,
          "name": "challenges",
          "type": "bytes1"
        },
        {
          "indexed": false,
          "name": "answerBlockNumber",
          "type": "uint256"
        }
      ],
      "name": "REFUND",
      "type": "event"
    },
    {
      "constant": true,
      "inputs": [],
      "name": "getPot",
      "outputs": [
        {
          "name": "pot",
          "type": "uint256"
        }
      ],
      "payable": false,
      "stateMutability": "view",
      "type": "function"
    },
    {
      "constant": false,
      "inputs": [
        {
          "name": "challenges",
          "type": "bytes1"
        }
      ],
      "name": "bet",
      "outputs": [
        {
          "name": "result",
          "type": "bool"
        }
      ],
      "payable": true,
      "stateMutability": "payable",
      "type": "function"
    },
    {
      "constant": false,
      "inputs": [],
      "name": "distribute",
      "outputs": [],
      "payable": false,
      "stateMutability": "nonpayable",
      "type": "function"
    },
    {
      "constant": false,
      "inputs": [
        {
          "name": "answer",
          "type": "bytes32"
        }
      ],
      "name": "setAnswerForTest",
      "outputs": [
        {
          "name": "result",
          "type": "bool"
        }
      ],
      "payable": false,
      "stateMutability": "nonpayable",
      "type": "function"
    },
    {
      "constant": true,
      "inputs": [
        {
          "name": "challenges",
          "type": "bytes1"
        },
        {
          "name": "answer",
          "type": "bytes32"
        }
      ],
      "name": "isMatch",
      "outputs": [
        {
          "name": "",
          "type": "uint8"
        }
      ],
      "payable": false,
      "stateMutability": "pure",
      "type": "function"
    },
    {
      "constant": true,
      "inputs": [
        {
          "name": "index",
          "type": "uint256"
        }
      ],
      "name": "getBetInfo",
      "outputs": [
        {
          "name": "answerBlockNumber",
          "type": "uint256"
        },
        {
          "name": "bettor",
          "type": "address"
        },
        {
          "name": "challenges",
          "type": "bytes1"
        }
      ],
      "payable": false,
      "stateMutability": "view",
      "type": "function"
    }
  ],
  "bytecode": "0x60806040526003805460a060020a60ff021916905534801561002057600080fd5b5060038054600160a060020a03191633179055610b6d806100426000396000f3fe60806040526004361061008d5763ffffffff7c0100000000000000000000000000000000000000000000000000000000600035041663403c9fa881146100925780637009fa36146100b957806379141f80146100f757806384f7e4f0146101515780638da5cb5b1461016657806399a167d714610197578063e4fc6b6d146101f5578063f4b46f5b1461020c575b600080fd5b34801561009e57600080fd5b506100a7610233565b60408051918252519081900360200190f35b3480156100c557600080fd5b506100e3600480360360208110156100dc57600080fd5b5035610239565b604080519115158252519081900360200190f35b34801561010357600080fd5b506101216004803603602081101561011a57600080fd5b50356102e9565b60408051938452600160a060020a039092166020840152600160f860020a03191682820152519081900360600190f35b34801561015d57600080fd5b506100a7610362565b34801561017257600080fd5b5061017b610368565b60408051600160a060020a039092168252519081900360200190f35b3480156101a357600080fd5b506101d1600480360360408110156101ba57600080fd5b50600160f860020a03198135169060200135610377565b604051808260028111156101e157fe5b60ff16815260200191505060405180910390f35b34801561020157600080fd5b5061020a61042b565b005b6100e36004803603602081101561022257600080fd5b5035600160f860020a0319166107e0565b60045490565b600354600090600160a060020a031633146102db57604080517f08c379a000000000000000000000000000000000000000000000000000000000815260206004820152602b60248201527f6f6e6c79206f776e65722063616e207365742074686520616e7377657220666f60448201527f722074657374206d6f6465000000000000000000000000000000000000000000606482015290519081900360840190fd5b50600581905560015b919050565b60008060006102f6610b21565b5050506000918252506002602090815260409182902082516060810184528154808252600190920154600160a060020a03811693820184905274010000000000000000000000000000000000000000900460f860020a02600160f860020a031916930183905292909190565b60055481565b600354600160a060020a031681565b60006010600160f860020a0319808516828104821683029290810282168190049160f860020a86861a0281168281048216830292908102821604908281169085161480156103d15750600160f860020a0319818116908416145b156103e3576001945050505050610425565b600160f860020a0319828116908516148061040a5750600160f860020a0319818116908416145b1561041c576002945050505050610425565b60009450505050505b92915050565b600080610436610b21565b60008060015494505b6000548510156107d45760008581526002602090815260409182902082516060810184528154808252600190920154600160a060020a038116938201939093527401000000000000000000000000000000000000000090920460f860020a02600160f860020a0319169282019290925293506104ba90610933565b915060008260028111156104ca57fe5b141561070a5760006104df846000015161097e565b90506104ef846040015182610377565b915060018260028111156104ff57fe5b14156105ab5761051e84602001516611c37937e08000600454016109b0565b60006004819055602086015160408701519297507f8219079e2d6c1192fb0ff7f78e6faaf5528ad6687e69749205d87bd4b156912b92899289919086908a5160408051978852600160a060020a03909616602088015286860194909452600160f860020a0319928316606087015260f860020a91901a0216608084015260a0830152519081900360c00190a15b60008260028111156105b957fe5b141561065157600480546611c37937e08000019055602084015160408501517f3b19d607433249d2ebc766ae82ca3848e9c064f1febb5147bc6e5b21d0adebc591889160009085828a5160408051978852600160a060020a03909616602088015286860194909452600160f860020a0319928316606087015260f860020a91901a0216608084015260a0830152519081900360c00190a15b600282600281111561065f57fe5b14156107085761067a84602001516611c37937e080006109b0565b94507f72ec2e949e4fad9380f9d5db3e2ed0e71cf22c51d8d66424508bdc761a3f4b0e8685602001518787604001518560006020811015156106b857fe5b8a5160408051978852600160a060020a03909616602088015286860194909452600160f860020a0319928316606087015260f860020a91901a0216608084015260a0830152519081900360c00190a15b505b600182600281111561071857fe5b1415610723576107d4565b600282600281111561073157fe5b14156107bf5761074c83602001516611c37937e080006109b0565b602080850151604080870151875182518b8152600160a060020a0390941694840194909452828201859052600160f860020a0319166060830152608082019290925290519195507f59c0185881271a0f53d43e6ab9310091408f9e0ff9ae2512613de800f26b8de4919081900360a00190a15b6107c885610a30565b5060019094019361043f565b50505060019190915550565b6000346611c37937e080001461085757604080517f08c379a000000000000000000000000000000000000000000000000000000000815260206004820152600e60248201527f4e6f7420656e6f75676820455448000000000000000000000000000000000000604482015290519081900360640190fd5b61086082610a65565b15156108cd57604080517f08c379a000000000000000000000000000000000000000000000000000000000815260206004820152601560248201527f4661696c20746f206164642061206e6577204265740000000000000000000000604482015290519081900360640190fd5b6000546040805160001990920182523360208301523482820152600160f860020a031984166060830152436003016080830152517f100791de9f40bf2d56ffa6dc5597d2fd0b2703ea70bc7548cd74c04f5d215ab79181900360a00190a1506001919050565b600081431180156109475750816101000143105b15610954575060006102e4565b438210610963575060016102e4565b61010082014310610976575060026102e4565b506002919050565b60035460009074010000000000000000000000000000000000000000900460ff166109ab57600554610425565b504090565b60405160009081908390600160a060020a0386169082156108fc0290839085818181858888f193505050501580156109ec573d6000803e3d6000fd5b50600354604051600160a060020a039091169083156108fc029084906000818181858888f19350505050158015610a27573d6000803e3d6000fd5b50949350505050565b60009081526002602052604081209081556001908101805474ffffffffffffffffffffffffffffffffffffffffff1916905590565b6000610a6f610b21565b336020828101918252436003018352600160f860020a03199490941660408084019182526000805481526002909652852092518355905160019283018054925160f860020a9004740100000000000000000000000000000000000000000274ff000000000000000000000000000000000000000019600160a060020a0390931673ffffffffffffffffffffffffffffffffffffffff199094169390931791909116919091179055825481019092555090565b60408051606081018252600080825260208201819052918101919091529056fea165627a7a7230582028354493efa92e726ea972dd214b1dbbaa946dd582f7837e505b8b24b647f2ca0029",
  "source": "// SPDX-License-Identifier: UNLICENSED\r\n// SPDX-License-Identifier GPL-30\r\npragma solidity >=0.4.22 <0.7.0;\r\n\r\ncontract Lottery{\r\n      struct BetInfo{\r\n         uint256 answerBlockNumber; //정답블록넘버\r\n         address payable bettor; //배팅한사람 주소\r\n         byte challenges; // ex) 0xab \r\n      }\r\n      uint256 private _tail;\r\n      uint256 private _head;\r\n      mapping (uint256 => BetInfo) private _bets;\r\n\r\n      address payable public owner; //public 자동 getter를 생성해줌 / \r\n      bool private mode = false; //false: use answer for test , true : use real block hash\r\n      uint256 private _pot; //\r\n      bytes32 public answerForTest;\r\n      uint256 constant internal BET_AMOUNT = 5 *10**15;\r\n      uint256 constant internal BET_BLOCK_INTERVAL = 3;\r\n      uint256 constant internal BLOCK_LIMIT  = 256;\r\n\r\n      enum BlockStatus { Checkable, NotRevealed, BlockLimitPassed }\r\n      enum BettingResult {Fail, Win, Draw}\r\n\r\n      event BET(uint256 index, address bettor, uint256 amount , byte challenges, uint256 answerBlockNumber);\r\n      event WIN(uint256 index, address bettor, uint256 amount, byte challenges, byte answer, uint256 answerBlockNumber);\r\n      event FAIL(uint256 index, address bettor, uint256 amount, byte challenges, byte answer, uint256 answerBlockNumber);\r\n      event DRAW(uint256 index, address bettor, uint256 amount, byte challenges, byte answer, uint256 answerBlockNumber);\r\n      event REFUND(uint256 index, address bettor, uint256 amount, byte challenges,  uint256 answerBlockNumber);\r\n\r\n\r\n      constructor() public{ //컨트랙트 실행될때 가장 먼저 실행되는 함수 배포가될때 보낸사람(msg.sender)을 owner에 set해줌 \r\n                            //msg.sender은 스마트컨트랙트 자체 전역변수\r\n        owner = msg.sender;\r\n      } \r\n \r\n      \r\n\r\n      //스마트컨트랙트에 변수를 조회하기위해선 view \r\n      function getPot() public view returns (uint256 pot){\r\n      return _pot;\r\n      }\r\n\r\n      /** \r\n        @dev 배팅을 한다. 유저는 0.005eth 를 보내야하고 , 글자배팅(1byte)를 보낸다.\r\n        큐에 저장된 배팅정보는 이후 distribute 함수에서 해결된다\r\n        @param challenges 유저가 배팅하는 글자\r\n        @return 함수가 잘 수행되었는지 확인 bool type \r\n       */\r\n      //BET 배팅 \r\n      function bet(byte challenges) public  payable returns  (bool result){\r\n         //check the proper ether is sent\r\n         require(msg.value == BET_AMOUNT, \"Not enough ETH\"); \r\n         //push bet to the queue\r\n         require(pushBet(challenges), \"Fail to add a new Bet\");\r\n         //emit event\r\n         emit BET(_tail-1, msg.sender, msg.value, challenges, block.number + BET_BLOCK_INTERVAL);\r\n\r\n         \r\n         return true;\r\n      }\r\n         \r\n\r\n      // Distribute 검증\r\n      /**\r\n      @dev 배팅 결과값을 확인하고 팟머니를 분배한다.\r\n      정답 실패 : 팟머니축적 , 정답맞춤 : 팟머니획득, 한글자맞춤 or 정답확인불가 : 배팅금액 돌려받음\r\n       */\r\n      function distribute() public {\r\n         //큐에 저장된 배팅정보가  3(head),4,5,6,7,8,9,10(tail)\r\n         uint256 cur; \r\n         uint256 transferAmount;\r\n\r\n         BetInfo memory b;\r\n         BlockStatus currentBlockStatus; \r\n         BettingResult currentBettingResult;\r\n\r\n\r\n         for (cur=_head; cur<_tail; cur++){\r\n            b = _bets[cur];\r\n            currentBlockStatus = getBlockStatus(b.answerBlockNumber);\r\n            \r\n\r\n            // checkable : block.number > Answerblocknumber && block.number < block_limit + answerblocknumber / 1\r\n            if(currentBlockStatus == BlockStatus.Checkable){\r\n               bytes32 answerBlockHash =  getAnswerBlockHash(b.answerBlockNumber);\r\n               currentBettingResult = isMatch(b.challenges,answerBlockHash);\r\n               //if win => bettor gets pot\r\n               if(currentBettingResult == BettingResult.Win){\r\n                  //transfer pot\r\n                  transferAmount = transferAfterPayingFee(b.bettor, _pot + BET_AMOUNT );\r\n                  // pot = 0 \r\n                  _pot = 0;\r\n                  // emit Win\r\n                  emit WIN(cur, b.bettor, transferAmount, b.challenges, answerBlockHash[0], b.answerBlockNumber);\r\n                  \r\n               }\r\n               //if fail => bettor's money goes pot \r\n               if(currentBettingResult == BettingResult.Fail){\r\n                  //pot = pot + betamount \r\n                  _pot = _pot + BET_AMOUNT;\r\n                  // emit Fail\r\n                  emit FAIL(cur, b.bettor, 0, b.challenges, answerBlockHash[0], b.answerBlockNumber);\r\n                  \r\n\r\n               }\r\n               //if draw  refund bettor's money \r\n               if(currentBettingResult == BettingResult.Draw){\r\n                  // transfer only betamount \r\n                  transferAmount = transferAfterPayingFee(b.bettor, BET_AMOUNT );\r\n\r\n                  // emit Draw\r\n                  emit DRAW(cur, b.bettor, transferAmount, b.challenges, answerBlockHash[0], b.answerBlockNumber);\r\n               }\r\n            }\r\n            // not revealed  : 마이닝이 안된상황 : block.number <= answerblocknumber 2\r\n            if(currentBlockStatus == BlockStatus.NotRevealed){\r\n               break;\r\n            }\r\n            // block limit passed : block.number >= answerblocknumber + blocklimit 3\r\n            if(currentBlockStatus == BlockStatus.BlockLimitPassed){\r\n               //refund\r\n               transferAmount = transferAfterPayingFee(b.bettor, BET_AMOUNT );\r\n               //emit refund \r\n               emit REFUND(cur, b.bettor, transferAmount, b.challenges, b.answerBlockNumber);\r\n            }         \r\n            //check the answer\r\n            popBet(cur);\r\n         }\r\n         _head = cur;\r\n      }\r\n      function transferAfterPayingFee(address payable addr, uint256 amount) internal returns (uint256){\r\n         uint256 fee = 0;\r\n\r\n         uint256 amountWithoutFee = amount - fee; //1%\r\n\r\n         // transfer to addr\r\n         addr.transfer(amountWithoutFee);\r\n         \r\n         // transfer to owner\r\n         owner.transfer(fee);\r\n\r\n         // call , send , transfer \r\n\r\n         return amountWithoutFee;\r\n      }\r\n\r\n      function setAnswerForTest(bytes32 answer) public  returns(bool result) {\r\n         require(msg.sender == owner, \"only owner can set the answer for test mode\");\r\n         answerForTest = answer;\r\n         return true;\r\n      }\r\n      function getAnswerBlockHash(uint256 answerBlockNumber ) internal view returns(bytes32 answer) {\r\n         return mode ? blockhash(answerBlockNumber) : answerForTest;\r\n      }\r\n\r\n      /**\r\n      * @dev 배팅글자와 정답을 확인한다.\r\n        @param challenges 배팅 글자\r\n        @param answer 블락해쉬\r\n        @return \r\n       */\r\n      function isMatch(byte challenges, bytes32 answer) public pure returns (BettingResult){\r\n         // challenges 0xab\r\n         // answer 0xab....ff 32 bytes\r\n\r\n         byte c1 = challenges;\r\n         byte c2 = challenges;\r\n\r\n         byte a1 = answer[0];\r\n         byte a2 = answer[0];\r\n\r\n         // get first number\r\n         c1 = c1 >> 4; //0xab -> 0x0a\r\n         c1 = c1 << 4; // 0xab -> 0xa0\r\n\r\n         a1 = a1 >> 4;\r\n         a1 = a1 << 4;\r\n\r\n         ///get second number\r\n         c2 = c2 << 4; //0xab -> 0xb0\r\n         c2 = c2 >> 4; //0xb0 -> 0x0b\r\n\r\n         a2 = a2 << 4;\r\n         a2 = a2 >> 4; \r\n\r\n         if(a1 == c1 && a2 == c2){\r\n            return BettingResult.Win;\r\n         }\r\n         if(a1 == c1 || a2 == c2 ){\r\n            return BettingResult.Draw;\r\n         }\r\n         return BettingResult.Fail;\r\n\r\n      }\r\n\r\n      function getBlockStatus(uint256 answerBlockNumber) internal view returns (BlockStatus ){\r\n         if(block.number > answerBlockNumber && block.number < BLOCK_LIMIT + answerBlockNumber){\r\n            return BlockStatus.Checkable;\r\n         }\r\n         if(block.number <= answerBlockNumber){\r\n            return BlockStatus.NotRevealed;\r\n         }\r\n         if(block.number >= answerBlockNumber + BLOCK_LIMIT){\r\n            return BlockStatus.BlockLimitPassed;\r\n         }\r\n         return BlockStatus.BlockLimitPassed;\r\n\r\n      }\r\n\r\n      //결과값을 검증하는 큐\r\n\r\n        //값이 틀리면 팟머니에 넣고 맞으면 돌려주는  \r\n\r\n      function getBetInfo(uint256 index) public view returns (uint256 answerBlockNumber, address bettor , byte challenges){\r\n         BetInfo memory b = _bets[index]; \r\n         answerBlockNumber = b.answerBlockNumber;\r\n         bettor = b.bettor;\r\n         challenges = b.challenges;\r\n      }\r\n\r\n      //push\r\n      function pushBet(byte challenges) internal returns (bool){\r\n         BetInfo memory b;\r\n         b.bettor = msg.sender; //https://docs.soliditylang.org/en/v0.8.24/units-and-global-variables.html 참고(전역변수)\r\n         b.answerBlockNumber = block.number + BET_BLOCK_INTERVAL; //block.number => 해당트랜잭션이 들어가는 블락넘버 return \r\n         b.challenges = challenges;\r\n\r\n         _bets[_tail] = b;\r\n         _tail++;\r\n\r\n         return true;\r\n      }\r\n\r\n      //pop\r\n      function popBet(uint256 index) internal returns (bool){\r\n         delete _bets[index];\r\n         return true;\r\n      }\r\n}",
  "sourcePath": "C:/Users/jinsol/Desktop/깃허브/Lottery-Dapp-/contracts/Lottery.sol",
  "compiler": {
    "name": "solc",
    "version": "0.5.0+commit.1d4f565a.Emscripten.clang"
  },
  "schemaVersion": "3.0.1",
  "updatedAt": "2024-02-25T18:18:22.104Z",
  "devdoc": {
    "methods": {
      "bet(bytes1)": {
        "details": "배팅을 한다. 유저는 0.005eth 를 보내야하고 , 글자배팅(1byte)를 보낸다.\r 큐에 저장된 배팅정보는 이후 distribute 함수에서 해결된다\r",
        "params": {
          "challenges": "유저가 배팅하는 글자\r"
        },
        "return": "함수가 잘 수행되었는지 확인 bool type \r"
      },
      "distribute()": {
        "details": "배팅 결과값을 확인하고 팟머니를 분배한다.\r 정답 실패 : 팟머니축적 , 정답맞춤 : 팟머니획득, 한글자맞춤 or 정답확인불가 : 배팅금액 돌려받음\r"
      },
      "isMatch(bytes1,bytes32)": {
        "details": "배팅글자와 정답을 확인한다.\r",
        "params": {
          "answer": "블락해쉬\r",
          "challenges": "배팅 글자\r"
        },
        "return": "\r"
      }
    }
  },
  "userdoc": {
    "methods": {}
  }
}