{
  "contractName": "Lottery",
  "abi": [
    {
      "inputs": [],
      "payable": false,
      "stateMutability": "nonpayable",
      "type": "constructor"
    },
    {
      "constant": true,
      "inputs": [],
      "name": "owner",
      "outputs": [
        {
          "internalType": "address",
          "name": "",
          "type": "address"
        }
      ],
      "payable": false,
      "stateMutability": "view",
      "type": "function"
    },
    {
      "constant": true,
      "inputs": [],
      "name": "getSomeValue",
      "outputs": [
        {
          "internalType": "uint256",
          "name": "value",
          "type": "uint256"
        }
      ],
      "payable": false,
      "stateMutability": "pure",
      "type": "function"
    }
  ],
  "bytecode": "0x608060405234801561001057600080fd5b50600080546001600160a01b0319163317905560ba806100316000396000f3fe6080604052348015600f57600080fd5b506004361060325760003560e01c80638da5cb5b146037578063a40674b7146059575b600080fd5b603d6071565b604080516001600160a01b039092168252519081900360200190f35b605f6080565b60408051918252519081900360200190f35b6000546001600160a01b031681565b60059056fea265627a7a72315820f3afcdd980f34e5c2627fba20e4ae1451aa5015aab2ebadd02a4fa4066a83d2064736f6c63430005100032",
  "source": "// SPDX-License-Identifier: UNLICENSED\r\n// SPDX-License-Identifier GPL-30\r\n\r\npragma solidity >=0.4.22 <0.7.0;\r\n\r\ncontract Lottery{\r\n     address public owner; //public 자동 getter를 생성해줌 / \r\n\r\n     constructor() public{ //컨트랙트 실행될때 가장 먼저 실행되는 함수 배포가될때 보낸사람(msg.sender)을 owner에 set해줌 \r\n                            //msg.sender은 스마트컨트랙트 자체 전역변수\r\n        owner = msg.sender;\r\n     } \r\n\r\n     function getSomeValue() public pure returns(uint256 value){ //다른밸류를 사용하지않기떄문에 pure\r\n        return 5;\r\n     }\r\n}",
  "sourcePath": "C:\\Users\\jinsol\\Desktop\\깃허브\\Lottery-Dapp-\\contracts\\Lottery.sol",
  "compiler": {
    "name": "solc",
    "version": "0.5.16+commit.9c3226ce.Emscripten.clang"
  },
  "schemaVersion": "3.4.16",
  "updatedAt": "2024-02-23T15:44:12.215Z",
  "networkType": "ethereum",
  "devdoc": {
    "methods": {}
  },
  "userdoc": {
    "methods": {}
  }
}