{
  "contractName": "Lottery",
  "abi": [
    {
      "inputs": [],
      "payable": false,
      "stateMutability": "nonpayable",
      "type": "constructor"
    },
    {
      "anonymous": false,
      "inputs": [
        {
          "indexed": false,
          "internalType": "uint256",
          "name": "index",
          "type": "uint256"
        },
        {
          "indexed": false,
          "internalType": "address",
          "name": "bettor",
          "type": "address"
        },
        {
          "indexed": false,
          "internalType": "uint256",
          "name": "amount",
          "type": "uint256"
        },
        {
          "indexed": false,
          "internalType": "bytes1",
          "name": "challenges",
          "type": "bytes1"
        },
        {
          "indexed": false,
          "internalType": "uint256",
          "name": "answerBlockNumber",
          "type": "uint256"
        }
      ],
      "name": "BET",
      "type": "event"
    },
    {
      "constant": true,
      "inputs": [],
      "name": "owner",
      "outputs": [
        {
          "internalType": "address",
          "name": "",
          "type": "address"
        }
      ],
      "payable": false,
      "stateMutability": "view",
      "type": "function"
    },
    {
      "constant": true,
      "inputs": [],
      "name": "getPot",
      "outputs": [
        {
          "internalType": "uint256",
          "name": "pot",
          "type": "uint256"
        }
      ],
      "payable": false,
      "stateMutability": "view",
      "type": "function"
    },
    {
      "constant": false,
      "inputs": [
        {
          "internalType": "bytes1",
          "name": "challenges",
          "type": "bytes1"
        }
      ],
      "name": "bet",
      "outputs": [
        {
          "internalType": "bool",
          "name": "result",
          "type": "bool"
        }
      ],
      "payable": true,
      "stateMutability": "payable",
      "type": "function"
    },
    {
      "constant": true,
      "inputs": [
        {
          "internalType": "uint256",
          "name": "index",
          "type": "uint256"
        }
      ],
      "name": "getBetInfo",
      "outputs": [
        {
          "internalType": "uint256",
          "name": "answerBlockNumber",
          "type": "uint256"
        },
        {
          "internalType": "address",
          "name": "bettor",
          "type": "address"
        },
        {
          "internalType": "bytes1",
          "name": "challenges",
          "type": "bytes1"
        }
      ],
      "payable": false,
      "stateMutability": "view",
      "type": "function"
    },
    {
      "constant": false,
      "inputs": [
        {
          "internalType": "bytes1",
          "name": "challenges",
          "type": "bytes1"
        }
      ],
      "name": "pushBet",
      "outputs": [
        {
          "internalType": "bool",
          "name": "",
          "type": "bool"
        }
      ],
      "payable": false,
      "stateMutability": "nonpayable",
      "type": "function"
    },
    {
      "constant": false,
      "inputs": [
        {
          "internalType": "uint256",
          "name": "index",
          "type": "uint256"
        }
      ],
      "name": "popBet",
      "outputs": [
        {
          "internalType": "bool",
          "name": "",
          "type": "bool"
        }
      ],
      "payable": false,
      "stateMutability": "nonpayable",
      "type": "function"
    }
  ],
  "bytecode": "0x608060405234801561001057600080fd5b50600380546001600160a01b0319163317905561042c806100326000396000f3fe6080604052600436106100555760003560e01c8063032820961461005a578063403c9fa8146100a257806379141f80146100c95780638da5cb5b14610123578063d04c9a8c14610154578063f4b46f5b1461017e575b600080fd5b34801561006657600080fd5b5061008e6004803603602081101561007d57600080fd5b50356001600160f81b0319166101a5565b604080519115158252519081900360200190f35b3480156100ae57600080fd5b506100b7610230565b60408051918252519081900360200190f35b3480156100d557600080fd5b506100f3600480360360208110156100ec57600080fd5b5035610236565b604080519384526001600160a01b0390921660208401526001600160f81b03191682820152519081900360600190f35b34801561012f57600080fd5b5061013861029b565b604080516001600160a01b039092168252519081900360200190f35b34801561016057600080fd5b5061008e6004803603602081101561017757600080fd5b50356102aa565b61008e6004803603602081101561019457600080fd5b50356001600160f81b0319166102d1565b60006101af6103d7565b3360208083019182524360030183526001600160f81b0319851660408085019182526000805481526002909352822093518455915160019384018054935160f81c600160a01b0260ff60a01b196001600160a01b03939093166001600160a01b03199095169490941791909116929092179091558054820190559050919050565b60045490565b60008060006102436103d7565b50505060009182525060026020908152604091829020825160608101845281548082526001909201546001600160a01b038116938201849052600160a01b900460f81b6001600160f81b031916930183905292909190565b6003546001600160a01b031681565b6000908152600260205260408120908155600190810180546001600160a81b031916905590565b60006611c37937e08000341461031f576040805162461bcd60e51b815260206004820152600e60248201526d09cdee840cadcdeeaced0408aa8960931b604482015290519081900360640190fd5b610328826101a5565b610371576040805162461bcd60e51b815260206004820152601560248201527411985a5b081d1bc81859190818481b995dc810995d605a1b604482015290519081900360640190fd5b60005460408051600019909201825233602083015234828201526001600160f81b031984166060830152436003016080830152517f100791de9f40bf2d56ffa6dc5597d2fd0b2703ea70bc7548cd74c04f5d215ab79181900360a00190a1506001919050565b60408051606081018252600080825260208201819052918101919091529056fea265627a7a723158202f36194af7e0300ec9c04ed34aa35d47220f7756bca3bcdf3a379114d119723064736f6c63430005100032",
  "source": "// SPDX-License-Identifier: UNLICENSED\r\n// SPDX-License-Identifier GPL-30\r\npragma solidity >=0.4.22 <0.7.0;\r\n\r\ncontract Lottery{\r\n      struct BetInfo{\r\n         uint256 answerBlockNumber; //정답블록넘버\r\n         address payable bettor; //배팅한사람 주소\r\n         byte challenges; // ex) 0xab \r\n      }\r\n      uint256 private _tail;\r\n      uint256 private _head;\r\n      mapping (uint256 => BetInfo) private _bets;\r\n\r\n      address public owner; //public 자동 getter를 생성해줌 / \r\n      \r\n      uint256 private _pot; //\r\n      uint256 constant internal BET_AMOUNT = 5 *10**15;\r\n      uint256 constant internal BET_BLOCK_INTERVAL = 3;\r\n      uint256 constant internal BLOCK_LIMIT  = 256;\r\n\r\n      event BET(uint256 index, address bettor, uint256 amount , byte challenges, uint256 answerBlockNumber);\r\n      \r\n\r\n      constructor() public{ //컨트랙트 실행될때 가장 먼저 실행되는 함수 배포가될때 보낸사람(msg.sender)을 owner에 set해줌 \r\n                            //msg.sender은 스마트컨트랙트 자체 전역변수\r\n        owner = msg.sender;\r\n      } \r\n \r\n      \r\n\r\n      //스마트컨트랙트에 변수를 조회하기위해선 view \r\n      function getPot() public view returns (uint256 pot){\r\n      return _pot;\r\n      }\r\n\r\n      /** \r\n        @dev 배팅을 한다. 유저는 0.005eth 를 보내야하고 , 글자배팅(1byte)를 보낸다.\r\n        큐에 저장된 배팅정보는 이후 distribute 함수에서 해결된다\r\n        @param challenges 유저가 배팅하는 글자\r\n        @return 함수가 잘 수행되었는지 확인 bool type \r\n       */\r\n      //BET 배팅 \r\n      function bet(byte challenges) public  payable returns  (bool result){\r\n         //check the proper ether is sent\r\n         require(msg.value == BET_AMOUNT, \"Not enough ETH\"); \r\n         //push bet to the queue\r\n         require(pushBet(challenges), \"Fail to add a new Bet\");\r\n         //emit event\r\n         emit BET(_tail-1, msg.sender, msg.value, challenges, block.number + BET_BLOCK_INTERVAL);\r\n         \r\n         \r\n         return true;\r\n      }\r\n         \r\n\r\n      // Distribute 검증\r\n        //결과값을 검증하는 큐\r\n        //값이 틀리면 팟머니에 넣고 맞으면 돌려주는  \r\n\r\n      function getBetInfo(uint256 index) public view returns (uint256 answerBlockNumber, address bettor , byte challenges){\r\n         BetInfo memory b = _bets[index]; \r\n         answerBlockNumber = b.answerBlockNumber;\r\n         bettor = b.bettor;\r\n         challenges = b.challenges;\r\n      }\r\n\r\n      //push\r\n      function pushBet(byte challenges) public returns (bool){\r\n         BetInfo memory b;\r\n         b.bettor = msg.sender; //https://docs.soliditylang.org/en/v0.8.24/units-and-global-variables.html 참고(전역변수)\r\n         b.answerBlockNumber = block.number + BET_BLOCK_INTERVAL; //block.number => 해당트랜잭션이 들어가는 블락넘버 return \r\n         b.challenges = challenges;\r\n\r\n         _bets[_tail] = b;\r\n         _tail++;\r\n\r\n         return true;\r\n      }\r\n\r\n      //pop\r\n      function popBet(uint256 index) public returns (bool){\r\n         delete _bets[index];\r\n         return true;\r\n      }\r\n}",
  "sourcePath": "C:\\Users\\jinsol\\Desktop\\깃허브\\Lottery-Dapp-\\contracts\\Lottery.sol",
  "compiler": {
    "name": "solc",
    "version": "0.5.16+commit.9c3226ce.Emscripten.clang"
  },
  "schemaVersion": "3.4.16",
  "updatedAt": "2024-02-23T18:13:03.442Z",
  "devdoc": {
    "methods": {
      "bet(bytes1)": {
        "details": "배팅을 한다. 유저는 0.005eth 를 보내야하고 , 글자배팅(1byte)를 보낸다. 큐에 저장된 배팅정보는 이후 distribute 함수에서 해결된다",
        "params": {
          "challenges": "유저가 배팅하는 글자"
        },
        "return": "함수가 잘 수행되었는지 확인 bool type "
      }
    }
  },
  "userdoc": {
    "methods": {}
  }
}