{
  "contractName": "Lottery",
  "abi": [
    {
      "constant": true,
      "inputs": [],
      "name": "owner",
      "outputs": [
        {
          "name": "",
          "type": "address"
        }
      ],
      "payable": false,
      "stateMutability": "view",
      "type": "function"
    },
    {
      "inputs": [],
      "payable": false,
      "stateMutability": "nonpayable",
      "type": "constructor"
    },
    {
      "anonymous": false,
      "inputs": [
        {
          "indexed": false,
          "name": "index",
          "type": "uint256"
        },
        {
          "indexed": false,
          "name": "bettor",
          "type": "address"
        },
        {
          "indexed": false,
          "name": "amount",
          "type": "uint256"
        },
        {
          "indexed": false,
          "name": "challenges",
          "type": "bytes1"
        },
        {
          "indexed": false,
          "name": "answerBlockNumber",
          "type": "uint256"
        }
      ],
      "name": "BET",
      "type": "event"
    },
    {
      "constant": true,
      "inputs": [],
      "name": "getPot",
      "outputs": [
        {
          "name": "pot",
          "type": "uint256"
        }
      ],
      "payable": false,
      "stateMutability": "view",
      "type": "function"
    },
    {
      "constant": false,
      "inputs": [
        {
          "name": "challenges",
          "type": "bytes1"
        }
      ],
      "name": "bet",
      "outputs": [
        {
          "name": "result",
          "type": "bool"
        }
      ],
      "payable": true,
      "stateMutability": "payable",
      "type": "function"
    },
    {
      "constant": false,
      "inputs": [],
      "name": "distribute",
      "outputs": [],
      "payable": false,
      "stateMutability": "nonpayable",
      "type": "function"
    },
    {
      "constant": true,
      "inputs": [
        {
          "name": "challenges",
          "type": "bytes1"
        },
        {
          "name": "answer",
          "type": "bytes32"
        }
      ],
      "name": "isMatch",
      "outputs": [
        {
          "name": "",
          "type": "uint8"
        }
      ],
      "payable": false,
      "stateMutability": "pure",
      "type": "function"
    },
    {
      "constant": true,
      "inputs": [
        {
          "name": "index",
          "type": "uint256"
        }
      ],
      "name": "getBetInfo",
      "outputs": [
        {
          "name": "answerBlockNumber",
          "type": "uint256"
        },
        {
          "name": "bettor",
          "type": "address"
        },
        {
          "name": "challenges",
          "type": "bytes1"
        }
      ],
      "payable": false,
      "stateMutability": "view",
      "type": "function"
    }
  ],
  "bytecode": "0x608060405234801561001057600080fd5b5060038054600160a060020a0319163317905561072c806100326000396000f3fe6080604052600436106100775763ffffffff7c0100000000000000000000000000000000000000000000000000000000600035041663403c9fa8811461007c57806379141f80146100a35780638da5cb5b1461010a57806399a167d714610148578063e4fc6b6d146101a6578063f4b46f5b146101bd575b600080fd5b34801561008857600080fd5b506100916101f8565b60408051918252519081900360200190f35b3480156100af57600080fd5b506100cd600480360360208110156100c657600080fd5b50356101fe565b6040805193845273ffffffffffffffffffffffffffffffffffffffff9092166020840152600160f860020a03191682820152519081900360600190f35b34801561011657600080fd5b5061011f610284565b6040805173ffffffffffffffffffffffffffffffffffffffff9092168252519081900360200190f35b34801561015457600080fd5b506101826004803603604081101561016b57600080fd5b50600160f860020a031981351690602001356102a0565b6040518082600281111561019257fe5b60ff16815260200191505060405180910390f35b3480156101b257600080fd5b506101bb610354565b005b6101e4600480360360208110156101d357600080fd5b5035600160f860020a031916610443565b604080519115158252519081900360200190f35b60045490565b600080600061020b6106e0565b505050600091825250600260209081526040918290208251606081018452815480825260019092015473ffffffffffffffffffffffffffffffffffffffff811693820184905274010000000000000000000000000000000000000000900460f860020a02600160f860020a031916930183905292909190565b60035473ffffffffffffffffffffffffffffffffffffffff1681565b60006010600160f860020a0319808516828104821683029290810282168190049160f860020a86861a0281168281048216830292908102821604908281169085161480156102fa5750600160f860020a0319818116908416145b1561030c57600194505050505061034e565b600160f860020a031982811690851614806103335750600160f860020a0319818116908416145b1561034557600294505050505061034e565b60009450505050505b92915050565b600061035e6106e0565b600060015492505b60005483101561043e576000838152600260209081526040918290208251606081018452815480825260019092015473ffffffffffffffffffffffffffffffffffffffff8116938201939093527401000000000000000000000000000000000000000090920460f860020a02600160f860020a0319169282019290925292506103ee90610597565b905060008160028111156103fe57fe5b5050600181600281111561040e57fe5b14156104195761043e565b600281600281111561042757fe5b5050610432836105e2565b50600190920191610366565b505050565b6000346611c37937e08000146104ba57604080517f08c379a000000000000000000000000000000000000000000000000000000000815260206004820152600e60248201527f4e6f7420656e6f75676820455448000000000000000000000000000000000000604482015290519081900360640190fd5b6104c382610617565b151561053057604080517f08c379a000000000000000000000000000000000000000000000000000000000815260206004820152601560248201527f4661696c20746f206164642061206e6577204265740000000000000000000000604482015290519081900360640190fd5b6000546040805160001990920182523360208301523482820152600160f860020a031984166060830152436003016080830152517f100791de9f40bf2d56ffa6dc5597d2fd0b2703ea70bc7548cd74c04f5d215ab79181900360a00190a15060015b919050565b600081431180156105ab5750816101000143105b156105b857506000610592565b4382106105c757506001610592565b610100820143106105da57506002610592565b506002919050565b60009081526002602052604081209081556001908101805474ffffffffffffffffffffffffffffffffffffffffff1916905590565b60006106216106e0565b336020828101918252436003018352600160f860020a03199490941660408084019182526000805481526002909652852092518355905160019283018054925160f860020a9004740100000000000000000000000000000000000000000274ff00000000000000000000000000000000000000001973ffffffffffffffffffffffffffffffffffffffff90931673ffffffffffffffffffffffffffffffffffffffff199094169390931791909116919091179055825481019092555090565b60408051606081018252600080825260208201819052918101919091529056fea165627a7a72305820078ed6ba27d9751030ee6fdc5ee2a95c35f16b8710ecfc3dfb99606c6a1dc9a30029",
  "source": "// SPDX-License-Identifier: UNLICENSED\r\n// SPDX-License-Identifier GPL-30\r\npragma solidity >=0.4.22 <0.7.0;\r\n\r\ncontract Lottery{\r\n      struct BetInfo{\r\n         uint256 answerBlockNumber; //정답블록넘버\r\n         address payable bettor; //배팅한사람 주소\r\n         byte challenges; // ex) 0xab \r\n      }\r\n      uint256 private _tail;\r\n      uint256 private _head;\r\n      mapping (uint256 => BetInfo) private _bets;\r\n\r\n      address public owner; //public 자동 getter를 생성해줌 / \r\n      \r\n      uint256 private _pot; //\r\n      uint256 constant internal BET_AMOUNT = 5 *10**15;\r\n      uint256 constant internal BET_BLOCK_INTERVAL = 3;\r\n      uint256 constant internal BLOCK_LIMIT  = 256;\r\n\r\n      enum BlockStatus { Checkable, NotRevealed, BlockLimitPassed }\r\n      enum BettingResult {Fail, Win, Draw}\r\n\r\n      event BET(uint256 index, address bettor, uint256 amount , byte challenges, uint256 answerBlockNumber);\r\n      \r\n\r\n      constructor() public{ //컨트랙트 실행될때 가장 먼저 실행되는 함수 배포가될때 보낸사람(msg.sender)을 owner에 set해줌 \r\n                            //msg.sender은 스마트컨트랙트 자체 전역변수\r\n        owner = msg.sender;\r\n      } \r\n \r\n      \r\n\r\n      //스마트컨트랙트에 변수를 조회하기위해선 view \r\n      function getPot() public view returns (uint256 pot){\r\n      return _pot;\r\n      }\r\n\r\n      /** \r\n        @dev 배팅을 한다. 유저는 0.005eth 를 보내야하고 , 글자배팅(1byte)를 보낸다.\r\n        큐에 저장된 배팅정보는 이후 distribute 함수에서 해결된다\r\n        @param challenges 유저가 배팅하는 글자\r\n        @return 함수가 잘 수행되었는지 확인 bool type \r\n       */\r\n      //BET 배팅 \r\n      function bet(byte challenges) public  payable returns  (bool result){\r\n         //check the proper ether is sent\r\n         require(msg.value == BET_AMOUNT, \"Not enough ETH\"); \r\n         //push bet to the queue\r\n         require(pushBet(challenges), \"Fail to add a new Bet\");\r\n         //emit event\r\n         emit BET(_tail-1, msg.sender, msg.value, challenges, block.number + BET_BLOCK_INTERVAL);\r\n\r\n         \r\n         return true;\r\n      }\r\n         \r\n\r\n      // Distribute 검증\r\n      function distribute() public {\r\n         //큐에 저장된 배팅정보가  3(head),4,5,6,7,8,9,10(tail)\r\n         uint256 cur; \r\n         BetInfo memory b;\r\n         BlockStatus currentBlockStatus; \r\n         for (cur=_head; cur<_tail; cur++){\r\n            b = _bets[cur];\r\n            currentBlockStatus = getBlockStatus(b.answerBlockNumber);\r\n\r\n            // checkable : block.number > Answerblocknumber && block.number < block_limit + answerblocknumber / 1\r\n            if(currentBlockStatus == BlockStatus.Checkable){\r\n               //if win => bettor gets pot\r\n\r\n               //if fail => bettor's money goes pot \r\n\r\n               //if draw  refund bettor's money \r\n            }\r\n            // not revealed  : 마이닝이 안된상황 : block.number <= answerblocknumber 2\r\n            if(currentBlockStatus == BlockStatus.NotRevealed){\r\n               break;\r\n            }\r\n            // block limit passed : block.number >= answerblocknumber + blocklimit 3\r\n            if(currentBlockStatus == BlockStatus.BlockLimitPassed){\r\n               //refund\r\n               //emit refund \r\n            }         \r\n            //check the answer\r\n            popBet(cur);\r\n         } \r\n      }\r\n\r\n      /**\r\n      * @dev 배팅글자와 정답을 확인한다.\r\n        @param challenges 배팅 글자\r\n        @param answer 블락해쉬\r\n        @return 정답결과\r\n       */\r\n      function isMatch(byte challenges, bytes32 answer) public pure returns (BettingResult){\r\n         // challenges 0xab\r\n         // answer 0xab....ff 32 bytes\r\n\r\n         byte c1 = challenges;\r\n         byte c2 = challenges;\r\n\r\n         byte a1 = answer[0];\r\n         byte a2 = answer[0];\r\n\r\n         // get first number\r\n         c1 = c1 >> 4; //0xab -> 0x0a\r\n         c1 = c1 << 4; // 0xab -> 0xa0\r\n\r\n         a1 = a1 >> 4;\r\n         a1 = a1 << 4;\r\n\r\n         ///get second number\r\n         c2 = c2 << 4; //0xab -> 0xb0\r\n         c2 = c2 >> 4; //0xb0 -> 0x0b\r\n\r\n         a2 = a2 << 4;\r\n         a2 = a2 >> 4; \r\n\r\n         if(a1 == c1 && a2 == c2){\r\n            return BettingResult.Win;\r\n         }\r\n         if(a1 == c1 || a2 == c2 ){\r\n            return BettingResult.Draw;\r\n         }\r\n         return BettingResult.Fail;\r\n\r\n      }\r\n\r\n      function getBlockStatus(uint256 answerBlockNumber) internal view returns (BlockStatus ){\r\n         if(block.number > answerBlockNumber && block.number < BLOCK_LIMIT + answerBlockNumber){\r\n            return BlockStatus.Checkable;\r\n         }\r\n         if(block.number <= answerBlockNumber){\r\n            return BlockStatus.NotRevealed;\r\n         }\r\n         if(block.number >= answerBlockNumber + BLOCK_LIMIT){\r\n            return BlockStatus.BlockLimitPassed;\r\n         }\r\n         return BlockStatus.BlockLimitPassed;\r\n\r\n      }\r\n\r\n      //결과값을 검증하는 큐\r\n\r\n        //값이 틀리면 팟머니에 넣고 맞으면 돌려주는  \r\n\r\n      function getBetInfo(uint256 index) public view returns (uint256 answerBlockNumber, address bettor , byte challenges){\r\n         BetInfo memory b = _bets[index]; \r\n         answerBlockNumber = b.answerBlockNumber;\r\n         bettor = b.bettor;\r\n         challenges = b.challenges;\r\n      }\r\n\r\n      //push\r\n      function pushBet(byte challenges) internal returns (bool){\r\n         BetInfo memory b;\r\n         b.bettor = msg.sender; //https://docs.soliditylang.org/en/v0.8.24/units-and-global-variables.html 참고(전역변수)\r\n         b.answerBlockNumber = block.number + BET_BLOCK_INTERVAL; //block.number => 해당트랜잭션이 들어가는 블락넘버 return \r\n         b.challenges = challenges;\r\n\r\n         _bets[_tail] = b;\r\n         _tail++;\r\n\r\n         return true;\r\n      }\r\n\r\n      //pop\r\n      function popBet(uint256 index) internal returns (bool){\r\n         delete _bets[index];\r\n         return true;\r\n      }\r\n}",
  "sourcePath": "C:/Users/jinsol/Desktop/깃허브/Lottery-Dapp-/contracts/Lottery.sol",
  "compiler": {
    "name": "solc",
    "version": "0.5.0+commit.1d4f565a.Emscripten.clang"
  },
  "schemaVersion": "3.0.1",
  "updatedAt": "2024-02-25T16:56:01.798Z",
  "devdoc": {
    "methods": {
      "bet(bytes1)": {
        "details": "배팅을 한다. 유저는 0.005eth 를 보내야하고 , 글자배팅(1byte)를 보낸다.\r 큐에 저장된 배팅정보는 이후 distribute 함수에서 해결된다\r",
        "params": {
          "challenges": "유저가 배팅하는 글자\r"
        },
        "return": "함수가 잘 수행되었는지 확인 bool type \r"
      },
      "isMatch(bytes1,bytes32)": {
        "details": "배팅글자와 정답을 확인한다.\r",
        "params": {
          "answer": "블락해쉬\r",
          "challenges": "배팅 글자\r"
        },
        "return": "정답결과\r"
      }
    }
  },
  "userdoc": {
    "methods": {}
  }
}